{
  "contractName": "TodoList",
  "abi": [
    {
      "constant": true,
      "inputs": [],
      "name": "contadorTareas",
      "outputs": [
        {
          "name": "",
          "type": "uint256"
        }
      ],
      "payable": false,
      "stateMutability": "view",
      "type": "function",
      "signature": "0xca4a53a6"
    }
  ],
  "bytecode": "0x608060405260008055348015601357600080fd5b50609e806100226000396000f3fe608060405260043610603f576000357c0100000000000000000000000000000000000000000000000000000000900463ffffffff168063ca4a53a6146044575b600080fd5b348015604f57600080fd5b506056606c565b6040518082815260200191505060405180910390f35b6000548156fea165627a7a72305820180019c3974707c21dcb714799edb971f52ef62c4f282c31f5488d564ab20aee0029",
  "source": "// SPDX-License-Identifier: MIT\r\npragma solidity >=0.5.0; \r\n\r\ncontract TodoList {\r\n    uint public contadorTareas = 0;\r\n}",
  "sourcePath": "C:/Users/diego/Desktop/UTN/Proyectos/eth-toDo-list/contracts/TodoList.sol",
  "compiler": {
    "name": "solc",
    "version": "0.5.0+commit.1d4f565a.Emscripten.clang"
  },
  "schemaVersion": "3.0.1",
  "updatedAt": "2021-03-29T17:06:00.730Z",
  "devdoc": {
    "methods": {}
  },
  "userdoc": {
    "methods": {}
  }
}